{
  "_format": "hh-sol-artifact-1",
  "contractName": "NumericChain",
  "sourceName": "contracts/NumericChain.sol",
  "abi": [
    {
      "inputs": [],
      "stateMutability": "nonpayable",
      "type": "constructor"
    },
    {
      "anonymous": false,
      "inputs": [
        {
          "indexed": true,
          "internalType": "address",
          "name": "owner",
          "type": "address"
        },
        {
          "indexed": true,
          "internalType": "address",
          "name": "spender",
          "type": "address"
        },
        {
          "indexed": false,
          "internalType": "uint256",
          "name": "value",
          "type": "uint256"
        }
      ],
      "name": "Approval",
      "type": "event"
    },
    {
      "anonymous": false,
      "inputs": [
        {
          "indexed": true,
          "internalType": "address",
          "name": "previousOwner",
          "type": "address"
        },
        {
          "indexed": true,
          "internalType": "address",
          "name": "newOwner",
          "type": "address"
        }
      ],
      "name": "OwnershipTransferred",
      "type": "event"
    },
    {
      "anonymous": false,
      "inputs": [
        {
          "indexed": false,
          "internalType": "uint256",
          "name": "id",
          "type": "uint256"
        }
      ],
      "name": "Snapshot",
      "type": "event"
    },
    {
      "anonymous": false,
      "inputs": [
        {
          "indexed": true,
          "internalType": "address",
          "name": "from",
          "type": "address"
        },
        {
          "indexed": true,
          "internalType": "address",
          "name": "to",
          "type": "address"
        },
        {
          "indexed": false,
          "internalType": "uint256",
          "name": "value",
          "type": "uint256"
        }
      ],
      "name": "Transfer",
      "type": "event"
    },
    {
      "inputs": [
        {
          "internalType": "address",
          "name": "owner",
          "type": "address"
        },
        {
          "internalType": "address",
          "name": "spender",
          "type": "address"
        }
      ],
      "name": "allowance",
      "outputs": [
        {
          "internalType": "uint256",
          "name": "",
          "type": "uint256"
        }
      ],
      "stateMutability": "view",
      "type": "function"
    },
    {
      "inputs": [
        {
          "internalType": "address",
          "name": "spender",
          "type": "address"
        },
        {
          "internalType": "uint256",
          "name": "amount",
          "type": "uint256"
        }
      ],
      "name": "approve",
      "outputs": [
        {
          "internalType": "bool",
          "name": "",
          "type": "bool"
        }
      ],
      "stateMutability": "nonpayable",
      "type": "function"
    },
    {
      "inputs": [
        {
          "internalType": "address",
          "name": "account",
          "type": "address"
        }
      ],
      "name": "balanceOf",
      "outputs": [
        {
          "internalType": "uint256",
          "name": "",
          "type": "uint256"
        }
      ],
      "stateMutability": "view",
      "type": "function"
    },
    {
      "inputs": [
        {
          "internalType": "address",
          "name": "account",
          "type": "address"
        },
        {
          "internalType": "uint256",
          "name": "snapshotId",
          "type": "uint256"
        }
      ],
      "name": "balanceOfAt",
      "outputs": [
        {
          "internalType": "uint256",
          "name": "",
          "type": "uint256"
        }
      ],
      "stateMutability": "view",
      "type": "function"
    },
    {
      "inputs": [],
      "name": "decimals",
      "outputs": [
        {
          "internalType": "uint8",
          "name": "",
          "type": "uint8"
        }
      ],
      "stateMutability": "view",
      "type": "function"
    },
    {
      "inputs": [
        {
          "internalType": "address",
          "name": "spender",
          "type": "address"
        },
        {
          "internalType": "uint256",
          "name": "subtractedValue",
          "type": "uint256"
        }
      ],
      "name": "decreaseAllowance",
      "outputs": [
        {
          "internalType": "bool",
          "name": "",
          "type": "bool"
        }
      ],
      "stateMutability": "nonpayable",
      "type": "function"
    },
    {
      "inputs": [
        {
          "internalType": "address",
          "name": "token",
          "type": "address"
        },
        {
          "internalType": "uint256",
          "name": "amount",
          "type": "uint256"
        }
      ],
      "name": "flashFee",
      "outputs": [
        {
          "internalType": "uint256",
          "name": "",
          "type": "uint256"
        }
      ],
      "stateMutability": "view",
      "type": "function"
    },
    {
      "inputs": [
        {
          "internalType": "contract IERC3156FlashBorrower",
          "name": "receiver",
          "type": "address"
        },
        {
          "internalType": "address",
          "name": "token",
          "type": "address"
        },
        {
          "internalType": "uint256",
          "name": "amount",
          "type": "uint256"
        },
        {
          "internalType": "bytes",
          "name": "data",
          "type": "bytes"
        }
      ],
      "name": "flashLoan",
      "outputs": [
        {
          "internalType": "bool",
          "name": "",
          "type": "bool"
        }
      ],
      "stateMutability": "nonpayable",
      "type": "function"
    },
    {
      "inputs": [
        {
          "internalType": "address",
          "name": "spender",
          "type": "address"
        },
        {
          "internalType": "uint256",
          "name": "addedValue",
          "type": "uint256"
        }
      ],
      "name": "increaseAllowance",
      "outputs": [
        {
          "internalType": "bool",
          "name": "",
          "type": "bool"
        }
      ],
      "stateMutability": "nonpayable",
      "type": "function"
    },
    {
      "inputs": [
        {
          "internalType": "address",
          "name": "token",
          "type": "address"
        }
      ],
      "name": "maxFlashLoan",
      "outputs": [
        {
          "internalType": "uint256",
          "name": "",
          "type": "uint256"
        }
      ],
      "stateMutability": "view",
      "type": "function"
    },
    {
      "inputs": [],
      "name": "name",
      "outputs": [
        {
          "internalType": "string",
          "name": "",
          "type": "string"
        }
      ],
      "stateMutability": "view",
      "type": "function"
    },
    {
      "inputs": [],
      "name": "owner",
      "outputs": [
        {
          "internalType": "address",
          "name": "",
          "type": "address"
        }
      ],
      "stateMutability": "view",
      "type": "function"
    },
    {
      "inputs": [],
      "name": "renounceOwnership",
      "outputs": [],
      "stateMutability": "nonpayable",
      "type": "function"
    },
    {
      "inputs": [],
      "name": "snapshot",
      "outputs": [],
      "stateMutability": "nonpayable",
      "type": "function"
    },
    {
      "inputs": [],
      "name": "symbol",
      "outputs": [
        {
          "internalType": "string",
          "name": "",
          "type": "string"
        }
      ],
      "stateMutability": "view",
      "type": "function"
    },
    {
      "inputs": [],
      "name": "totalSupply",
      "outputs": [
        {
          "internalType": "uint256",
          "name": "",
          "type": "uint256"
        }
      ],
      "stateMutability": "view",
      "type": "function"
    },
    {
      "inputs": [
        {
          "internalType": "uint256",
          "name": "snapshotId",
          "type": "uint256"
        }
      ],
      "name": "totalSupplyAt",
      "outputs": [
        {
          "internalType": "uint256",
          "name": "",
          "type": "uint256"
        }
      ],
      "stateMutability": "view",
      "type": "function"
    },
    {
      "inputs": [
        {
          "internalType": "address",
          "name": "recipient",
          "type": "address"
        },
        {
          "internalType": "uint256",
          "name": "amount",
          "type": "uint256"
        }
      ],
      "name": "transfer",
      "outputs": [
        {
          "internalType": "bool",
          "name": "",
          "type": "bool"
        }
      ],
      "stateMutability": "nonpayable",
      "type": "function"
    },
    {
      "inputs": [
        {
          "internalType": "address",
          "name": "sender",
          "type": "address"
        },
        {
          "internalType": "address",
          "name": "recipient",
          "type": "address"
        },
        {
          "internalType": "uint256",
          "name": "amount",
          "type": "uint256"
        }
      ],
      "name": "transferFrom",
      "outputs": [
        {
          "internalType": "bool",
          "name": "",
          "type": "bool"
        }
      ],
      "stateMutability": "nonpayable",
      "type": "function"
    },
    {
      "inputs": [
        {
          "internalType": "address",
          "name": "newOwner",
          "type": "address"
        }
      ],
      "name": "transferOwnership",
      "outputs": [],
      "stateMutability": "nonpayable",
      "type": "function"
    }
  ],
  "bytecode": "0x60806040523480156200001157600080fd5b506040518060400160405280600d81526020017f4e756d6572696320436861696e000000000000000000000000000000000000008152506040518060400160405280600381526020017f4e4d43000000000000000000000000000000000000000000000000000000000081525081600390805190602001906200009692919062000693565b508060049080519060200190620000af92919062000693565b505050620000d2620000c66200011860201b60201c565b6200012060201b60201c565b6200011233620000e7620001e660201b60201c565b600a620000f5919062000883565b6301406f40620001069190620009c0565b620001ef60201b60201c565b62000b3d565b600033905090565b6000600960009054906101000a900473ffffffffffffffffffffffffffffffffffffffff16905081600960006101000a81548173ffffffffffffffffffffffffffffffffffffffff021916908373ffffffffffffffffffffffffffffffffffffffff1602179055508173ffffffffffffffffffffffffffffffffffffffff168173ffffffffffffffffffffffffffffffffffffffff167f8be0079c531659141344cd1fd0a4f28419497f9722a3daafe3b4186f6b6457e060405160405180910390a35050565b60006012905090565b600073ffffffffffffffffffffffffffffffffffffffff168273ffffffffffffffffffffffffffffffffffffffff16141562000262576040517f08c379a000000000000000000000000000000000000000000000000000000000815260040162000259906200077b565b60405180910390fd5b62000276600083836200036860201b60201c565b80600260008282546200028a9190620007cb565b92505081905550806000808473ffffffffffffffffffffffffffffffffffffffff1673ffffffffffffffffffffffffffffffffffffffff1681526020019081526020016000206000828254620002e19190620007cb565b925050819055508173ffffffffffffffffffffffffffffffffffffffff16600073ffffffffffffffffffffffffffffffffffffffff167fddf252ad1be2c89b69c2b068fc378daa952ba7f163c4a11628f55a4df523b3ef836040516200034891906200079d565b60405180910390a362000364600083836200038560201b60201c565b5050565b620003808383836200038a60201b62000e7b1760201c565b505050565b505050565b620003a28383836200048560201b62000f351760201c565b600073ffffffffffffffffffffffffffffffffffffffff168373ffffffffffffffffffffffffffffffffffffffff161415620003ff57620003e9826200048a60201b60201c565b620003f9620004ed60201b60201c565b62000480565b600073ffffffffffffffffffffffffffffffffffffffff168273ffffffffffffffffffffffffffffffffffffffff1614156200045c5762000446836200048a60201b60201c565b62000456620004ed60201b60201c565b6200047f565b6200046d836200048a60201b60201c565b6200047e826200048a60201b60201c565b5b5b505050565b505050565b620004ea600560008373ffffffffffffffffffffffffffffffffffffffff1673ffffffffffffffffffffffffffffffffffffffff168152602001908152602001600020620004de836200051160201b60201c565b6200055960201b60201c565b50565b6200050f600662000503620005e560201b60201c565b6200055960201b60201c565b565b60008060008373ffffffffffffffffffffffffffffffffffffffff1673ffffffffffffffffffffffffffffffffffffffff168152602001908152602001600020549050919050565b60006200056b620005ef60201b60201c565b90508062000582846000016200060d60201b60201c565b1015620005e05782600001819080600181540180825580915050600190039060005260206000200160009091909190915055826001018290806001815401808255809150506001900390600052602060002001600090919091909150555b505050565b6000600254905090565b60006200060860086200068560201b62000f3a1760201c565b905090565b6000808280549050141562000626576000905062000680565b81600183805490506200063a919062000a21565b8154811062000672577f4e487b7100000000000000000000000000000000000000000000000000000000600052603260045260246000fd5b906000526020600020015490505b919050565b600081600001549050919050565b828054620006a19062000a73565b90600052602060002090601f016020900481019282620006c5576000855562000711565b82601f10620006e057805160ff191683800117855562000711565b8280016001018555821562000711579182015b8281111562000710578251825591602001919060010190620006f3565b5b50905062000720919062000724565b5090565b5b808211156200073f57600081600090555060010162000725565b5090565b600062000752601f83620007ba565b91506200075f8262000b14565b602082019050919050565b620007758162000a5c565b82525050565b60006020820190508181036000830152620007968162000743565b9050919050565b6000602082019050620007b460008301846200076a565b92915050565b600082825260208201905092915050565b6000620007d88262000a5c565b9150620007e58362000a5c565b9250827fffffffffffffffffffffffffffffffffffffffffffffffffffffffffffffffff038211156200081d576200081c62000aa9565b5b828201905092915050565b6000808291508390505b60018511156200087a5780860481111562000852576200085162000aa9565b5b6001851615620008625780820291505b8081029050620008728562000b07565b945062000832565b94509492505050565b6000620008908262000a5c565b91506200089d8362000a66565b9250620008cc7fffffffffffffffffffffffffffffffffffffffffffffffffffffffffffffffff8484620008d4565b905092915050565b600082620008e65760019050620009b9565b81620008f65760009050620009b9565b81600181146200090f57600281146200091a5762000950565b6001915050620009b9565b60ff8411156200092f576200092e62000aa9565b5b8360020a91508482111562000949576200094862000aa9565b5b50620009b9565b5060208310610133831016604e8410600b84101617156200098a5782820a90508381111562000984576200098362000aa9565b5b620009b9565b62000999848484600162000828565b92509050818404811115620009b357620009b262000aa9565b5b81810290505b9392505050565b6000620009cd8262000a5c565b9150620009da8362000a5c565b9250817fffffffffffffffffffffffffffffffffffffffffffffffffffffffffffffffff048311821515161562000a165762000a1562000aa9565b5b828202905092915050565b600062000a2e8262000a5c565b915062000a3b8362000a5c565b92508282101562000a515762000a5062000aa9565b5b828203905092915050565b6000819050919050565b600060ff82169050919050565b6000600282049050600182168062000a8c57607f821691505b6020821081141562000aa35762000aa262000ad8565b5b50919050565b7f4e487b7100000000000000000000000000000000000000000000000000000000600052601160045260246000fd5b7f4e487b7100000000000000000000000000000000000000000000000000000000600052602260045260246000fd5b60008160011c9050919050565b7f45524332303a206d696e7420746f20746865207a65726f206164647265737300600082015250565b612bc58062000b4d6000396000f3fe608060405234801561001057600080fd5b506004361061012c5760003560e01c8063715018a6116100ad578063a457c2d711610071578063a457c2d71461035b578063a9059cbb1461038b578063d9d98ce4146103bb578063dd62ed3e146103eb578063f2fde38b1461041b5761012c565b8063715018a6146102db5780638da5cb5b146102e557806395d89b41146103035780639711715a14610321578063981b24d01461032b5761012c565b806339509351116100f457806339509351146101eb5780634ee2cd7e1461021b5780635cffe9de1461024b578063613255ab1461027b57806370a08231146102ab5761012c565b806306fdde0314610131578063095ea7b31461014f57806318160ddd1461017f57806323b872dd1461019d578063313ce567146101cd575b600080fd5b610139610437565b60405161014691906121cf565b60405180910390f35b61016960048036038101906101649190611d3a565b6104c9565b60405161017691906121b4565b60405180910390f35b6101876104e7565b6040516101949190612411565b60405180910390f35b6101b760048036038101906101b29190611ceb565b6104f1565b6040516101c491906121b4565b60405180910390f35b6101d56105e9565b6040516101e2919061242c565b60405180910390f35b61020560048036038101906102009190611d3a565b6105f2565b60405161021291906121b4565b60405180910390f35b61023560048036038101906102309190611d3a565b61069e565b6040516102429190612411565b60405180910390f35b61026560048036038101906102609190611d9f565b61070e565b60405161027291906121b4565b60405180910390f35b61029560048036038101906102909190611c86565b6108be565b6040516102a29190612411565b60405180910390f35b6102c560048036038101906102c09190611c86565b610935565b6040516102d29190612411565b60405180910390f35b6102e361097d565b005b6102ed610a05565b6040516102fa919061213d565b60405180910390f35b61030b610a2f565b60405161031891906121cf565b60405180910390f35b610329610ac1565b005b61034560048036038101906103409190611e1f565b610b48565b6040516103529190612411565b60405180910390f35b61037560048036038101906103709190611d3a565b610b79565b60405161038291906121b4565b60405180910390f35b6103a560048036038101906103a09190611d3a565b610c64565b6040516103b291906121b4565b60405180910390f35b6103d560048036038101906103d09190611d3a565b610c82565b6040516103e29190612411565b60405180910390f35b61040560048036038101906104009190611caf565b610cfc565b6040516104129190612411565b60405180910390f35b61043560048036038101906104309190611c86565b610d83565b005b606060038054610446906125e2565b80601f0160208091040260200160405190810160405280929190818152602001828054610472906125e2565b80156104bf5780601f10610494576101008083540402835291602001916104bf565b820191906000526020600020905b8154815290600101906020018083116104a257829003601f168201915b5050505050905090565b60006104dd6104d6610f48565b8484610f50565b6001905092915050565b6000600254905090565b60006104fe84848461111b565b6000600160008673ffffffffffffffffffffffffffffffffffffffff1673ffffffffffffffffffffffffffffffffffffffff1681526020019081526020016000206000610549610f48565b73ffffffffffffffffffffffffffffffffffffffff1673ffffffffffffffffffffffffffffffffffffffff168152602001908152602001600020549050828110156105c9576040517f08c379a00000000000000000000000000000000000000000000000000000000081526004016105c0906122f1565b60405180910390fd5b6105dd856105d5610f48565b858403610f50565b60019150509392505050565b60006012905090565b60006106946105ff610f48565b84846001600061060d610f48565b73ffffffffffffffffffffffffffffffffffffffff1673ffffffffffffffffffffffffffffffffffffffff16815260200190815260200160002060008873ffffffffffffffffffffffffffffffffffffffff1673ffffffffffffffffffffffffffffffffffffffff1681526020019081526020016000205461068f9190612474565b610f50565b6001905092915050565b60008060006106eb84600560008873ffffffffffffffffffffffffffffffffffffffff1673ffffffffffffffffffffffffffffffffffffffff16815260200190815260200160002061139c565b9150915081610702576106fd85610935565b610704565b805b9250505092915050565b60008061071b8686610c82565b905061072787866114b8565b7f439148f0bbc682ca079e46d6e2c2f0c1e3b820f1a291b069d8882abf8cf18dd98773ffffffffffffffffffffffffffffffffffffffff166323e30c8b338989868a8a6040518763ffffffff1660e01b815260040161078b96959493929190612158565b602060405180830381600087803b1580156107a557600080fd5b505af11580156107b9573d6000803e3d6000fd5b505050506040513d601f19601f820116820180604052508101906107dd9190611d76565b1461081d576040517f08c379a0000000000000000000000000000000000000000000000000000000008152600401610814906122b1565b60405180910390fd5b60006108298830610cfc565b905081866108379190612474565b811015610879576040517f08c379a0000000000000000000000000000000000000000000000000000000008152600401610870906123b1565b60405180910390fd5b61089a883084898561088b91906124fb565b61089591906124fb565b610f50565b6108af8883886108aa9190612474565b611618565b60019250505095945050505050565b60003073ffffffffffffffffffffffffffffffffffffffff168273ffffffffffffffffffffffffffffffffffffffff16146108fa57600061092e565b6109026104e7565b7fffffffffffffffffffffffffffffffffffffffffffffffffffffffffffffffff61092d91906124fb565b5b9050919050565b60008060008373ffffffffffffffffffffffffffffffffffffffff1673ffffffffffffffffffffffffffffffffffffffff168152602001908152602001600020549050919050565b610985610f48565b73ffffffffffffffffffffffffffffffffffffffff166109a3610a05565b73ffffffffffffffffffffffffffffffffffffffff16146109f9576040517f08c379a00000000000000000000000000000000000000000000000000000000081526004016109f090612311565b60405180910390fd5b610a0360006117ef565b565b6000600960009054906101000a900473ffffffffffffffffffffffffffffffffffffffff16905090565b606060048054610a3e906125e2565b80601f0160208091040260200160405190810160405280929190818152602001828054610a6a906125e2565b8015610ab75780601f10610a8c57610100808354040283529160200191610ab7565b820191906000526020600020905b815481529060010190602001808311610a9a57829003601f168201915b5050505050905090565b610ac9610f48565b73ffffffffffffffffffffffffffffffffffffffff16610ae7610a05565b73ffffffffffffffffffffffffffffffffffffffff1614610b3d576040517f08c379a0000000000000000000000000000000000000000000000000000000008152600401610b3490612311565b60405180910390fd5b610b456118b5565b50565b6000806000610b5884600661139c565b9150915081610b6e57610b696104e7565b610b70565b805b92505050919050565b60008060016000610b88610f48565b73ffffffffffffffffffffffffffffffffffffffff1673ffffffffffffffffffffffffffffffffffffffff16815260200190815260200160002060008573ffffffffffffffffffffffffffffffffffffffff1673ffffffffffffffffffffffffffffffffffffffff16815260200190815260200160002054905082811015610c45576040517f08c379a0000000000000000000000000000000000000000000000000000000008152600401610c3c906123d1565b60405180910390fd5b610c59610c50610f48565b85858403610f50565b600191505092915050565b6000610c78610c71610f48565b848461111b565b6001905092915050565b60003073ffffffffffffffffffffffffffffffffffffffff168373ffffffffffffffffffffffffffffffffffffffff1614610cf2576040517f08c379a0000000000000000000000000000000000000000000000000000000008152600401610ce9906122d1565b60405180910390fd5b6000905092915050565b6000600160008473ffffffffffffffffffffffffffffffffffffffff1673ffffffffffffffffffffffffffffffffffffffff16815260200190815260200160002060008373ffffffffffffffffffffffffffffffffffffffff1673ffffffffffffffffffffffffffffffffffffffff16815260200190815260200160002054905092915050565b610d8b610f48565b73ffffffffffffffffffffffffffffffffffffffff16610da9610a05565b73ffffffffffffffffffffffffffffffffffffffff1614610dff576040517f08c379a0000000000000000000000000000000000000000000000000000000008152600401610df690612311565b60405180910390fd5b600073ffffffffffffffffffffffffffffffffffffffff168173ffffffffffffffffffffffffffffffffffffffff161415610e6f576040517f08c379a0000000000000000000000000000000000000000000000000000000008152600401610e6690612251565b60405180910390fd5b610e78816117ef565b50565b610e86838383610f35565b600073ffffffffffffffffffffffffffffffffffffffff168373ffffffffffffffffffffffffffffffffffffffff161415610ed157610ec48261190b565b610ecc61195e565b610f30565b600073ffffffffffffffffffffffffffffffffffffffff168273ffffffffffffffffffffffffffffffffffffffff161415610f1c57610f0f8361190b565b610f1761195e565b610f2f565b610f258361190b565b610f2e8261190b565b5b5b505050565b505050565b600081600001549050919050565b600033905090565b600073ffffffffffffffffffffffffffffffffffffffff168373ffffffffffffffffffffffffffffffffffffffff161415610fc0576040517f08c379a0000000000000000000000000000000000000000000000000000000008152600401610fb790612371565b60405180910390fd5b600073ffffffffffffffffffffffffffffffffffffffff168273ffffffffffffffffffffffffffffffffffffffff161415611030576040517f08c379a000000000000000000000000000000000000000000000000000000000815260040161102790612271565b60405180910390fd5b80600160008573ffffffffffffffffffffffffffffffffffffffff1673ffffffffffffffffffffffffffffffffffffffff16815260200190815260200160002060008473ffffffffffffffffffffffffffffffffffffffff1673ffffffffffffffffffffffffffffffffffffffff168152602001908152602001600020819055508173ffffffffffffffffffffffffffffffffffffffff168373ffffffffffffffffffffffffffffffffffffffff167f8c5be1e5ebec7d5bd14f71427d1e84f3dd0314c0f7b2291e5b200ac8c7c3b9258360405161110e9190612411565b60405180910390a3505050565b600073ffffffffffffffffffffffffffffffffffffffff168373ffffffffffffffffffffffffffffffffffffffff16141561118b576040517f08c379a000000000000000000000000000000000000000000000000000000000815260040161118290612351565b60405180910390fd5b600073ffffffffffffffffffffffffffffffffffffffff168273ffffffffffffffffffffffffffffffffffffffff1614156111fb576040517f08c379a00000000000000000000000000000000000000000000000000000000081526004016111f290612211565b60405180910390fd5b611206838383611972565b60008060008573ffffffffffffffffffffffffffffffffffffffff1673ffffffffffffffffffffffffffffffffffffffff1681526020019081526020016000205490508181101561128c576040517f08c379a000000000000000000000000000000000000000000000000000000000815260040161128390612291565b60405180910390fd5b8181036000808673ffffffffffffffffffffffffffffffffffffffff1673ffffffffffffffffffffffffffffffffffffffff16815260200190815260200160002081905550816000808573ffffffffffffffffffffffffffffffffffffffff1673ffffffffffffffffffffffffffffffffffffffff168152602001908152602001600020600082825461131f9190612474565b925050819055508273ffffffffffffffffffffffffffffffffffffffff168473ffffffffffffffffffffffffffffffffffffffff167fddf252ad1be2c89b69c2b068fc378daa952ba7f163c4a11628f55a4df523b3ef846040516113839190612411565b60405180910390a3611396848484611982565b50505050565b600080600084116113e2576040517f08c379a00000000000000000000000000000000000000000000000000000000081526004016113d990612391565b60405180910390fd5b6113ea611987565b84111561142c576040517f08c379a0000000000000000000000000000000000000000000000000000000008152600401611423906121f1565b60405180910390fd5b6000611444858560000161199890919063ffffffff16565b905083600001805490508114156114625760008092509250506114b1565b60018460010182815481106114a0577f4e487b7100000000000000000000000000000000000000000000000000000000600052603260045260246000fd5b906000526020600020015492509250505b9250929050565b600073ffffffffffffffffffffffffffffffffffffffff168273ffffffffffffffffffffffffffffffffffffffff161415611528576040517f08c379a000000000000000000000000000000000000000000000000000000000815260040161151f906123f1565b60405180910390fd5b61153460008383611972565b80600260008282546115469190612474565b92505081905550806000808473ffffffffffffffffffffffffffffffffffffffff1673ffffffffffffffffffffffffffffffffffffffff168152602001908152602001600020600082825461159b9190612474565b925050819055508173ffffffffffffffffffffffffffffffffffffffff16600073ffffffffffffffffffffffffffffffffffffffff167fddf252ad1be2c89b69c2b068fc378daa952ba7f163c4a11628f55a4df523b3ef836040516116009190612411565b60405180910390a361161460008383611982565b5050565b600073ffffffffffffffffffffffffffffffffffffffff168273ffffffffffffffffffffffffffffffffffffffff161415611688576040517f08c379a000000000000000000000000000000000000000000000000000000000815260040161167f90612331565b60405180910390fd5b61169482600083611972565b60008060008473ffffffffffffffffffffffffffffffffffffffff1673ffffffffffffffffffffffffffffffffffffffff1681526020019081526020016000205490508181101561171a576040517f08c379a000000000000000000000000000000000000000000000000000000000815260040161171190612231565b60405180910390fd5b8181036000808573ffffffffffffffffffffffffffffffffffffffff1673ffffffffffffffffffffffffffffffffffffffff16815260200190815260200160002081905550816002600082825461177191906124fb565b92505081905550600073ffffffffffffffffffffffffffffffffffffffff168373ffffffffffffffffffffffffffffffffffffffff167fddf252ad1be2c89b69c2b068fc378daa952ba7f163c4a11628f55a4df523b3ef846040516117d69190612411565b60405180910390a36117ea83600084611982565b505050565b6000600960009054906101000a900473ffffffffffffffffffffffffffffffffffffffff16905081600960006101000a81548173ffffffffffffffffffffffffffffffffffffffff021916908373ffffffffffffffffffffffffffffffffffffffff1602179055508173ffffffffffffffffffffffffffffffffffffffff168173ffffffffffffffffffffffffffffffffffffffff167f8be0079c531659141344cd1fd0a4f28419497f9722a3daafe3b4186f6b6457e060405160405180910390a35050565b60006118c16008611abe565b60006118cb611987565b90507f8030e83b04d87bef53480e26263266d6ca66863aa8506aca6f2559d18aa1cb67816040516118fc9190612411565b60405180910390a18091505090565b61195b600560008373ffffffffffffffffffffffffffffffffffffffff1673ffffffffffffffffffffffffffffffffffffffff16815260200190815260200160002061195683610935565b611ad4565b50565b611970600661196b6104e7565b611ad4565b565b61197d838383610e7b565b505050565b505050565b60006119936008610f3a565b905090565b600080838054905014156119af5760009050611ab8565b600080848054905090505b80821015611a395760006119ce8383611b4f565b905084868281548110611a0a577f4e487b7100000000000000000000000000000000000000000000000000000000600052603260045260246000fd5b90600052602060002001541115611a2357809150611a33565b600181611a309190612474565b92505b506119ba565b600082118015611a9757508385600184611a5391906124fb565b81548110611a8a577f4e487b7100000000000000000000000000000000000000000000000000000000600052603260045260246000fd5b9060005260206000200154145b15611ab257600182611aa991906124fb565b92505050611ab8565b81925050505b92915050565b6001816000016000828254019250508190555050565b6000611ade611987565b905080611aed84600001611b75565b1015611b4a5782600001819080600181540180825580915050600190039060005260206000200160009091909190915055826001018290806001815401808255809150506001900390600052602060002001600090919091909150555b505050565b60006002828418611b6091906124ca565b828416611b6d9190612474565b905092915050565b60008082805490501415611b8c5760009050611be3565b8160018380549050611b9e91906124fb565b81548110611bd5577f4e487b7100000000000000000000000000000000000000000000000000000000600052603260045260246000fd5b906000526020600020015490505b919050565b600081359050611bf781612b33565b92915050565b600081519050611c0c81612b4a565b92915050565b60008083601f840112611c2457600080fd5b8235905067ffffffffffffffff811115611c3d57600080fd5b602083019150836001820283011115611c5557600080fd5b9250929050565b600081359050611c6b81612b61565b92915050565b600081359050611c8081612b78565b92915050565b600060208284031215611c9857600080fd5b6000611ca684828501611be8565b91505092915050565b60008060408385031215611cc257600080fd5b6000611cd085828601611be8565b9250506020611ce185828601611be8565b9150509250929050565b600080600060608486031215611d0057600080fd5b6000611d0e86828701611be8565b9350506020611d1f86828701611be8565b9250506040611d3086828701611c71565b9150509250925092565b60008060408385031215611d4d57600080fd5b6000611d5b85828601611be8565b9250506020611d6c85828601611c71565b9150509250929050565b600060208284031215611d8857600080fd5b6000611d9684828501611bfd565b91505092915050565b600080600080600060808688031215611db757600080fd5b6000611dc588828901611c5c565b9550506020611dd688828901611be8565b9450506040611de788828901611c71565b935050606086013567ffffffffffffffff811115611e0457600080fd5b611e1088828901611c12565b92509250509295509295909350565b600060208284031215611e3157600080fd5b6000611e3f84828501611c71565b91505092915050565b611e518161252f565b82525050565b611e6081612541565b82525050565b6000611e728385612452565b9350611e7f8385846125a0565b611e88836126a1565b840190509392505050565b6000611e9e82612447565b611ea88185612463565b9350611eb88185602086016125af565b611ec1816126a1565b840191505092915050565b6000611ed9601d83612463565b9150611ee4826126b2565b602082019050919050565b6000611efc602383612463565b9150611f07826126db565b604082019050919050565b6000611f1f602283612463565b9150611f2a8261272a565b604082019050919050565b6000611f42602683612463565b9150611f4d82612779565b604082019050919050565b6000611f65602283612463565b9150611f70826127c8565b604082019050919050565b6000611f88602683612463565b9150611f9382612817565b604082019050919050565b6000611fab602483612463565b9150611fb682612866565b604082019050919050565b6000611fce601b83612463565b9150611fd9826128b5565b602082019050919050565b6000611ff1602883612463565b9150611ffc826128de565b604082019050919050565b6000612014602083612463565b915061201f8261292d565b602082019050919050565b6000612037602183612463565b915061204282612956565b604082019050919050565b600061205a602583612463565b9150612065826129a5565b604082019050919050565b600061207d602483612463565b9150612088826129f4565b604082019050919050565b60006120a0601683612463565b91506120ab82612a43565b602082019050919050565b60006120c3602f83612463565b91506120ce82612a6c565b604082019050919050565b60006120e6602583612463565b91506120f182612abb565b604082019050919050565b6000612109601f83612463565b915061211482612b0a565b602082019050919050565b61212881612589565b82525050565b61213781612593565b82525050565b60006020820190506121526000830184611e48565b92915050565b600060a08201905061216d6000830189611e48565b61217a6020830188611e48565b612187604083018761211f565b612194606083018661211f565b81810360808301526121a7818486611e66565b9050979650505050505050565b60006020820190506121c96000830184611e57565b92915050565b600060208201905081810360008301526121e98184611e93565b905092915050565b6000602082019050818103600083015261220a81611ecc565b9050919050565b6000602082019050818103600083015261222a81611eef565b9050919050565b6000602082019050818103600083015261224a81611f12565b9050919050565b6000602082019050818103600083015261226a81611f35565b9050919050565b6000602082019050818103600083015261228a81611f58565b9050919050565b600060208201905081810360008301526122aa81611f7b565b9050919050565b600060208201905081810360008301526122ca81611f9e565b9050919050565b600060208201905081810360008301526122ea81611fc1565b9050919050565b6000602082019050818103600083015261230a81611fe4565b9050919050565b6000602082019050818103600083015261232a81612007565b9050919050565b6000602082019050818103600083015261234a8161202a565b9050919050565b6000602082019050818103600083015261236a8161204d565b9050919050565b6000602082019050818103600083015261238a81612070565b9050919050565b600060208201905081810360008301526123aa81612093565b9050919050565b600060208201905081810360008301526123ca816120b6565b9050919050565b600060208201905081810360008301526123ea816120d9565b9050919050565b6000602082019050818103600083015261240a816120fc565b9050919050565b6000602082019050612426600083018461211f565b92915050565b6000602082019050612441600083018461212e565b92915050565b600081519050919050565b600082825260208201905092915050565b600082825260208201905092915050565b600061247f82612589565b915061248a83612589565b9250827fffffffffffffffffffffffffffffffffffffffffffffffffffffffffffffffff038211156124bf576124be612614565b5b828201905092915050565b60006124d582612589565b91506124e083612589565b9250826124f0576124ef612643565b5b828204905092915050565b600061250682612589565b915061251183612589565b92508282101561252457612523612614565b5b828203905092915050565b600061253a82612569565b9050919050565b60008115159050919050565b6000819050919050565b60006125628261252f565b9050919050565b600073ffffffffffffffffffffffffffffffffffffffff82169050919050565b6000819050919050565b600060ff82169050919050565b82818337600083830152505050565b60005b838110156125cd5780820151818401526020810190506125b2565b838111156125dc576000848401525b50505050565b600060028204905060018216806125fa57607f821691505b6020821081141561260e5761260d612672565b5b50919050565b7f4e487b7100000000000000000000000000000000000000000000000000000000600052601160045260246000fd5b7f4e487b7100000000000000000000000000000000000000000000000000000000600052601260045260246000fd5b7f4e487b7100000000000000000000000000000000000000000000000000000000600052602260045260246000fd5b6000601f19601f8301169050919050565b7f4552433230536e617073686f743a206e6f6e6578697374656e74206964000000600082015250565b7f45524332303a207472616e7366657220746f20746865207a65726f206164647260008201527f6573730000000000000000000000000000000000000000000000000000000000602082015250565b7f45524332303a206275726e20616d6f756e7420657863656564732062616c616e60008201527f6365000000000000000000000000000000000000000000000000000000000000602082015250565b7f4f776e61626c653a206e6577206f776e657220697320746865207a65726f206160008201527f6464726573730000000000000000000000000000000000000000000000000000602082015250565b7f45524332303a20617070726f766520746f20746865207a65726f20616464726560008201527f7373000000000000000000000000000000000000000000000000000000000000602082015250565b7f45524332303a207472616e7366657220616d6f756e742065786365656473206260008201527f616c616e63650000000000000000000000000000000000000000000000000000602082015250565b7f4552433230466c6173684d696e743a20696e76616c69642072657475726e207660008201527f616c756500000000000000000000000000000000000000000000000000000000602082015250565b7f4552433230466c6173684d696e743a2077726f6e6720746f6b656e0000000000600082015250565b7f45524332303a207472616e7366657220616d6f756e742065786365656473206160008201527f6c6c6f77616e6365000000000000000000000000000000000000000000000000602082015250565b7f4f776e61626c653a2063616c6c6572206973206e6f7420746865206f776e6572600082015250565b7f45524332303a206275726e2066726f6d20746865207a65726f2061646472657360008201527f7300000000000000000000000000000000000000000000000000000000000000602082015250565b7f45524332303a207472616e736665722066726f6d20746865207a65726f20616460008201527f6472657373000000000000000000000000000000000000000000000000000000602082015250565b7f45524332303a20617070726f76652066726f6d20746865207a65726f2061646460008201527f7265737300000000000000000000000000000000000000000000000000000000602082015250565b7f4552433230536e617073686f743a206964206973203000000000000000000000600082015250565b7f4552433230466c6173684d696e743a20616c6c6f77616e636520646f6573206e60008201527f6f7420616c6c6f7720726566756e640000000000000000000000000000000000602082015250565b7f45524332303a2064656372656173656420616c6c6f77616e63652062656c6f7760008201527f207a65726f000000000000000000000000000000000000000000000000000000602082015250565b7f45524332303a206d696e7420746f20746865207a65726f206164647265737300600082015250565b612b3c8161252f565b8114612b4757600080fd5b50565b612b538161254d565b8114612b5e57600080fd5b50565b612b6a81612557565b8114612b7557600080fd5b50565b612b8181612589565b8114612b8c57600080fd5b5056fea2646970667358221220ee5a7d84699fe733e3d2d164cce0aabe07388c6194ae21a1546997290927f5d064736f6c63430008040033",
  "linkReferences": {},
  "deployedLinkReferences": {}
}